:020000040800F2
:100000000020002071070008CD080008CF08000874
:10001000D1080008D3080008D50800080000000037
:10002000000000000000000000000000D7080008E9
:10003000D908000800000000DB080008DD080008FF
:10004000B9070008B9070008B9070008B907000890
:10005000B9070008B9070008B9070008B907000880
:10006000B9070008B9070008B9070008B907000870
:10007000B9070008B9070008B9070008B907000860
:10008000B9070008B9070008B9070008B907000850
:10009000B9070008B9070008B9070008B907000840
:1000A000B9070008B9070008B9070008B907000830
:1000B000B9070008B9070008B9070008B907000820
:1000C000B9070008B9070008B9070008B907000810
:1000D000B9070008B9070008B9070008B907000800
:1000E000B9070008B9070008B9070008B9070008F0
:1000F000B9070008B9070008B9070008B9070008E0
:10010000B9070008B9070008B9070008B9070008CF
:10011000B9070008B9070008B9070008B9070008BF
:10012000B907000800000000000000000000000007
:0C01300000000000000000005FF808F173
:10013C0008B5344B98421FD0334B984226D0334BE2
:10014C0098422DD0324B98420CD0324B984231D041
:10015C00314B984238D0314B98423FD0304B98427B
:10016C0046D008BD0121082000F05CFABDE808402B
:10017C000021082000F056BA0121084600F052FA7E
:10018C00BDE808400021012000F04CBA01210220FA
:10019C0000F048FABDE808400021022000F042BA05
:1001AC000121042000F03EFABDE8084000210420A3
:1001BC0000F038BA0121102000F034FABDE80840F4
:1001CC000021102000F02EBA0121402000F02AFA64
:1001DC00BDE808400021402000F024BA0121802015
:1001EC0000F020FABDE808400021802000F01ABA87
:1001FC000121202000F016FABDE808400021202043
:10020C0000F010BA00000240000402400008024056
:10021C00000C02400010024000180240001C02407A
:10022C000014024000222DE9F04313464FF0010E5A
:10023C0003260D6804E00133102B02F1020239D0C1
:10024C000EFA03F434EA0507F5D10F79D0F80090D3
:10025C0006FA02FC07FA02F829EA0C09013F48EAFF
:10026C000908012F6FEA0C0CC0F8008014D8D0F8E4
:10027C0008804F790CEA080C974047EA0C07876016
:10028C00B0F804C08F791FFA8CFC9F402CEA040C48
:10029C00BCB244EA0C048480C768CC7906FA02FC30
:1002AC00944027EA0C0701333C43102BC46002F145
:1002BC000202C5D1BDE8F0834FF6FF720023C0E9FE
:1002CC00002370474FF4803382B00193019B0B43A2
:1002DC000193019BC361C161019BC361C36901931C
:1002EC00C369019302B07047038A194214BF0120FD
:1002FC0000207047008A80B2704700BF838A194281
:10030C0014BF012000207047808A80B2704700BF64
:10031C0001837047418370470AB101837047418361
:10032C00704700BF81827047838A9BB24B408382A7
:10033C00704700BF4FF00F0CCB0800EB830001F0AF
:10034C000701036A89000CFA01FC23EA0C0303621F
:10035C00036A8A401A430262704700BF00200C4BAC
:10036C000C4A196841F48071196099680A409A60C6
:10037C001A6822F0885222F001121A601A6822F4CC
:10038C0080221A609A6822F47D029A60D8607047C5
:10039C00003802400CC0FF880022024B9A70987003
:1003AC00704700BF00380240002382B00A4A019314
:1003BC00136813F4003F019B03F101030193019BAC
:1003CC0005D0054B1868C0F3404002B07047B3F538
:1003DC00A04FEDD1F5E700BF00380240014BD871BA
:1003EC00704700BF00380240034A536823F460434F
:1003FC0003435360704700BF00380240014B186242
:10040C00704700BF00004742034A536823F4F85377
:10041C0043EA00235360704700380240014B1860D8
:10042C00704700BF000047420022034B83F8352081
:10043C0083F83500704700BF00380240014BC3F809
:10044C008006704700004742024B024311439972E9
:10045C00704700BF00380240014B1866704700BF60
:10046C0000004742014B1867704700BF000047422D
:10047C00014BC3F8AC06704700004742014B0843E0
:10048C00D872704700380240034A936823F0030384
:10049C0003439360704700BF00380240024B9868DA
:1004AC0000F00C00704700BF00380240034A93680C
:1004BC0023F0F00303439360704700BF0038024001
:1004CC00034A936823F4E06303439360704700BFCF
:1004DC0000380240034A936823F4605343EAC00394
:1004EC009360704700380240264B10B49B6803F0B1
:1004FC000C030C2B08D8DFE803F0070707073F07AE
:10050C000707420707072A004FF400431D4A1E49FC
:10051C005268C2F34232013293401A4C0360A26813
:10052C00C2F303120A44127BD3404360A268C2F3A5
:10053C0002220A44127B23FA02F28260A26810BCE7
:10054C00C2F3C22211440A7BD340C36070470D4CE6
:10055C000D49A268A368C2F383428A5CA468D2B234
:10056C00E40354BF094C0A4CC3F3815304FB02F25D
:10057C000133B2FBF3F3D0E7044B0349CDE7044B53
:10058C000149CAE700380240340900080024F4008D
:10059C0000127A0000F44032B2F5403F07D108490E
:1005AC0000F0C0400B6823F0C04318430860044BB4
:1005BC00596B21F440315963596B0A435A637047A4
:1005CC0000380240014BC3F8D80670470000474280
:1005DC00014BC3F8DC06704700004742044AD3695C
:1005EC0011B10343D361704723EA0003D361704711
:1005FC0000380240044A136A11B103431362704776
:10060C0023EA00031362704700380240044A536A1D
:10061C0011B103435362704723EA000353627047DE
:10062C0000380240044A136911B103431361704747
:10063C0023EA00031361704700380240044A5369EF
:10064C0011B103435361704723EA000353617047B0
:10065C0000380240044A936911B103439361704717
:10066C0023EA00039361704700380240044A936AFE
:10067C0011B103439362704723EA000393627047FE
:10068C0000380240044AD36A11B10343D362704765
:10069C0023EA0003D362704700380240044A136B0C
:1006AC0011B103431363704723EA000313637047CC
:1006BC0000380240044A537B11B103435373704713
:1006CC0023EA000353737047003802404309012B9F
:1006DC00054B00F01F000CBF1B685B6B23FA00F08E
:1006EC0000F00100704700BF00380240024A536B13
:1006FC0043F080735363704700380240034BDB6850
:10070C00184214BF01200020704700BF003802407F
:10071C00014B9873704700BF0038024070B500263B
:10072C000C4D0D4C641BA410A64209D100F00AF923
:10073C0000260A4D0A4C641BA410A64205D170BDBC
:10074C0055F8043B98470136EEE755F8043B9847BB
:10075C000136F2E70000000000000000000000007D
:10076C0000000000002103E00B4B5B5843500431A8
:10077C000A480B4B42189A42F6D30A4A02E000236D
:10078C0042F8043B084B9A42F9D300F011F8FFF7FA
:10079C00C5FF00F09FF870476809000800000020B2
:1007AC00000000200000002008000020FEE70000F0
:1007BC003E4B82B01A6842F480721A6099683C4AC7
:1007CC000A409A601A6822F0885222F001121A60CC
:1007DC001A6822F480221A609A6822F47D029A60C8
:1007EC000022DA60009201921A6842F480321A6098
:1007FC001A6802F400320192009A01320092019AB6
:10080C001AB9009AB2F5A04FF2D11B6813F4003359
:10081C0018BF01230193019B012B41D14FF40061BF
:10082C00244B1A68A3F5806342F00402C3F8002439
:10083C00D3F8002442F00202C3F80024D3F80024B9
:10084C0042F00102C3F800245A6A42F080525A6204
:10085C00194A11605168C906FCD49A689A609A6862
:10086C009A609A689A609A6822F47D029A609A68F3
:10087C0042F411029A601A6842F080721A600B4BB3
:10088C001A689201FCD59A6822F003029A609A6861
:10089C0042F003029A609A6802F00C020C2AFAD118
:1008AC004FF00062054B9A6002B07047003802406E
:1008BC000CC0FF88003C02400070004000ED00E0DE
:1008CC007047FEE7FEE7FEE7FEE7704770477047AC
:1008DC007047000008B501210820FFF77FFE0324B4
:1008EC0040F201330E490F48C1E90043FFF79AFC6F
:1008FC0023460C4A138353831383538313835383E9
:10090C00138353831383538313835383138353832B
:10091C00138353831383538313835383EAE700BFF7
:10092C0000000020000C0240030406080C101820E4
:10093C003000000000000000010203040102030467
:10094C0006070809F8B500BFF8BC08BC9E467047FE
:0C095C00F8B500BFF8BC08BC9E46704710
:040000050800077177
:00000001FF
