:020000040800F2
:1000000000200020651E0008C11F0008C31F000853
:10001000C51F0008C71F0008C91F00080000000016
:10002000000000000000000000000000CB1F0008DE
:10003000CD1F000800000000CF1F0008D11F0008DE
:10004000AD1E0008AD1E0008AD1E0008AD1E000864
:10005000AD1E0008AD1E0008AD1E0008AD1E000854
:10006000AD1E0008AD1E0008AD1E0008AD1E000844
:10007000AD1E0008AD1E0008AD1E0008AD1E000834
:10008000AD1E0008AD1E0008AD1E0008AD1E000824
:10009000AD1E0008AD1E0008AD1E0008AD1E000814
:1000A000AD1E0008AD1E0008AD1E0008AD1E000804
:1000B000AD1E0008AD1E0008AD1E0008AD1E0008F4
:1000C000AD1E0008AD1E0008AD1E0008AD1E0008E4
:1000D000AD1E0008AD1E0008AD1E0008AD1E0008D4
:1000E000AD1E0008AD1E0008AD1E0008AD1E0008C4
:1000F000AD1E0008AD1E0008AD1E0008AD1E0008B4
:10010000AD1E0008AD1E0008AD1E0008AD1E0008A3
:10011000AD1E0008AD1E0008AD1E0008AD1E000893
:10012000AD1E0008000000000000000000000000FC
:0C01300000000000000000005FF808F173
:10013C0070B504460C4D82B055F82000012101F039
:10014C0021F940F20133094E05EB44052D8A69462D
:10015C0056F82400CDE9005300F02AFD56F824305F
:10016C001D8302B070BD00BF0020000800000020FD
:10017C00044B054A03EB400352F820201B8A53839F
:10018C00704700BF0020000800000020044B054A07
:10019C0003EB400352F820201B8A1383704700BFE7
:1001AC000020000800000020054A064B52F82020D1
:1001BC0003EB4003918A1B8A4B409BB2938270479E
:1001CC0000000020002000082DE9F041264E86B0EA
:1001DC0006EB800304460D469869012101F0D2F824
:1001EC0001210027084601F0D9F8204B4FEA84087A
:1001FC00434406EB44081869B8F8303002A98DF86E
:10020C000C708DF80F70029300F0D2FC012D02D00F
:10021C0006B0BDE8F081264496F83C1096F84400F0
:10022C0001F004FBBC420CBF08230C23B8F84C2093
:10023C0004A804928DF815308DF814708DF81650B2
:10024C0000F0D4FB0F2240F20F1396F8581001A8BF
:10025C008DF804108DF80520ADF8063000F05CFA2E
:10026C0006B0BDE8F08100BF0020000800000020AF
:10027C0008B5054A054B02EB400203EB8003118ED7
:10028C00186900F0F7FC08BD0020000800000020F1
:10029C002DE9F043064688461E4D4FEA800905EBD2
:1002AC008004A36E206E83B01843012101F06AF81C
:1002BC00206F194CAF194C44012101F07BF897F8D1
:1002CC00782097F87C10A06A00F0FAFC05EB460544
:1002DC0097F8802097F88410206B00F0F1FC0F4AFF
:1002EC00B5F888306946A06ACDE9003200F060FCB0
:1002FC00B5F88C306946206B009300F059FC4146F0
:10030C00A06B01F0DFFB0121A06B01F05BFC03B0E3
:10031C00BDE8F0830020000800000020020300016B
:10032C0010B51C4C82B00021204601F091F92046FA
:10033C0001F0C8F800214FF4804001F03BF84FF475
:10034C000052002304F5E6342046694600928DF8ED
:10035C0004308DF8073000F02BFC4FF480436946D5
:10036C002046009300F024FC4FF4004369462046DD
:10037C00009300F01DFC802369460748009300F0B1
:10038C0017FC402369460548009300F011FC02B0AD
:10039C0010BD00BF00380040000C024000100240AD
:1003AC0070B5012188B01A2000F0ECFF01214FF448
:1003BC00804000F0FFFF4FF40052284C284B2046A1
:1003CC0001A90192029300F0F3FB4FF48043204605
:1003DC0001A9019300F0ECFB4FF40043204601A966
:1003EC00019300F0E5FB80221E4B01A91E48CDE9CC
:1003FC000123002600F0DCFB0125402301A91B484A
:10040C0001938DF808608DF80B5000F0D1FB20465D
:10041C0005220D2100F054FC204605220E2100F08F
:10042C004FFC204605220F2100F04AFC4FF400320D
:10043C004FF0827107230E48A4F5E634CDE9031280
:10044C00CDE9050603A92046ADF81C3001F070F883
:10045C002946204601F0FCF808B070BD00040240AB
:10046C000203000101030001000C024000100240D5
:10047C000100000210B5144C82B00021204600F09F
:10048C00CFFC204600F030FC00214FF4001000F0AF
:10049C0091FF4022002304F5D8342046694600928F
:1004AC008DF804308DF8073000F082FB802369460C
:1004BC002046009300F07CFB2023694620460093E5
:1004CC0000F076FB02B010BD0054004010B50121C5
:1004DC0082B0174C4FF4001000F06CFF0121022089
:1004EC0000F050FF20460422062100F0E9FB2046D4
:1004FC000422072100F0E4FB20460422052100F031
:10050C00DFFB40220B4B69462046CDE9002300F06F
:10051C004FFB802369462046009300F049FB2023C3
:10052C0069462046009300F043FB02B010BD00BFAB
:10053C00000402400203010070B5204C84B000217D
:10054C00204600F06DFC204600F0CEFB00214FF45D
:10055C00001000F02FFF00244023194D02A928465B
:10056C0002938DF80C408DF80F4000F021FB802396
:10057C0002A92846029300F01BFB102301A801934B
:10058C0000F0CAF811230F4E01A8ADF8043005F5A0
:10059C00B9458DF8064000F0BFF83046214600F012
:1005AC00CDF92146284600F0C9F9304600F006F98D
:1005BC00284600F003F904B070BD00BF00540040A1
:1005CC00000402406C600240F0B5012185B04FF48C
:1005DC00001000F0EFFE0121022000F0D3FE0121FB
:1005EC00084600F0DBFE324C01214FF4001000F005
:1005FC0005FF00214FF4001000F000FF20460422FC
:10060C00062100F05DFB20460422072100F058FB78
:10061C0040228027274B204602A9CDE9022300F077
:10062C00C7FA02A92046029700F0C2FA224B01A891
:10063C000025019300F070F81123204E01A8ADF8AD
:10064C0004308DF8065000F067F801214FF08070EF
:10065C0000F098FE304600F0B1F8194C194B1022FE
:10066C0023604FF6FF73E3604FF44053C4E901522B
:10067C00C4E9065525612562A562134D2146304615
:10068C006362676100F02EF9284600F097F8214666
:10069C00284600F027F930460122022100F060F9CB
:1006AC0001220221284600F05BF905B0F0BD00BF25
:1006BC000004024002030100100000016C600240C3
:1006CC0040000020105400408060024010B40B46E3
:1006DC00044642B91022084908484C6010BCC1E9D4
:1006EC00022300F0FFB80022034905484C6010BCFF
:1006FC00C1E9022300F0F6B8400000206C60024013
:10070C0080600240034B40F0BF6040F40030D86082
:10071C00704700BF00ED00E030B501240178C378CC
:10072C0001F01F024FEA511C9440D3B1104B0F251E
:10073C00DB6890F801E0DB43C3F302231D41C3F1F6
:10074C0004038278DBB20EFA03F32A40DBB20948C9
:10075C0013431B010144DBB281F8003340F82C40F9
:10076C0030BD044B0CF1200C43F82C4030BD00BFC5
:10077C0000ED00E000E100E021F06041024B21F0CF
:10078C007F0101439960704700ED00E0044A136952
:10079C0011B103431361704723EA000313617047DF
:1007AC0000ED00E04FF0E022136904280CBF43F089
:1007BC00040323F004031361704700BF4FF6FE7C63
:1007CC0000230268394902EA0C0288420260036085
:1007DC0043608360C36027D0354B98421ED0354BA5
:1007EC0098422DD0344B984230D0344B984221D083
:1007FC00334B984230D0334B984239D0324B9842DD
:10080C003CD0324B98422DD0314B98423CD0314B9E
:10081C0098423FD0304B984242D070472F4A536891
:10082C0043F0F003536070472C4A536843F00F03B6
:10083C0053607047294A536843F4702353607047E0
:10084C00264A536843F4706353607047234A5368D5
:10085C0043F4704353607047204A536843F4700369
:10086C00536070471E4A536843F0F003536070475F
:10087C001A4A536843F0706353607047184A5368C0
:10088C0043F00F0353607047154A536843F4706389
:10089C0053607047124A536843F470435360704777
:1008AC000F4A536843F470235360B6E70860024064
:1008BC001C600240306002404460024058600240BC
:1008CC006C60024080600240086402401C6402407C
:1008DC0030640240446402405864024000600240AC
:1008EC00006402408B6830B40C6A0A6923431343DA
:1008FC00CD69D1E90542234313434C6A2B4302686B
:10090C0023438C6A6FF30E122343CC6813430360AA
:10091C00D1E900234460826030BCC360704700BFE3
:10092C000023C0E90033C0E90233C0E90433C0E955
:10093C000633C0E908338362704700BF21B10368F6
:10094C0043F00103036070474FF6FE7203681340D7
:10095C000360704741607047406880B2704700BFC9
:10096C00036812B10B430360704723EA0103036071
:10097C00704700BFC30054BF034B044B1B680342BA
:10098C0014BF012000207047006002400064024048
:10099C00C30054BF014B024B5860704700600240CB
:1009AC0000640240C30054BF034B044B1B68184245
:1009BC0014BF012000207047006002400064024018
:1009CC00C30054BF014B024B58607047006002409B
:1009DC000064024000226FF07F41034B1A605A60A2
:1009EC009A60DA605961704700040140037930B4B1
:1009FC008279046803F18043E14303F58233F2B159
:100A0C00154A15680D4015605568294051601968E4
:100A1C00214319609168036821EA03019160D16850
:100A2C0021EA0301D160417910290DD030BC01F1CC
:100A3C00804202F5823211680B43136070471A68CA
:100A4C0030BC0A401A607047916830BC1943916001
:100A5C00D1680B43D36070470004014000234FF46E
:100A6C004062036082808371704700BF024A136941
:100A7C0003431361704700BF00040140034B5B69E3
:100A8C00034214BF01200020704700BF0004014046
:100A9C00014B5861704700BF00040140034B5B6978
:100AAC00184214BF01200020704700BF0004014011
:100ABC00014B5861704700BF0004014008B5344B2E
:100ACC0098421FD0334B984226D0334B98422DD0AE
:100ADC00324B98420CD0324B984231D0314B984229
:100AEC0038D0314B98423FD0304B984246D008BD5D
:100AFC000121082000F06AFCBDE808400021082014
:100B0C0000F064BC0121084600F060FCBDE8084020
:100B1C000021012000F05ABC0121022000F056FCFB
:100B2C00BDE808400021022000F050BC0121042047
:100B3C0000F04CFCBDE808400021042000F046BC4D
:100B4C000121102000F042FCBDE8084000211020DB
:100B5C0000F03CBC0121402000F038FCBDE808400E
:100B6C000021402000F032BC0121802000F02EFC3E
:100B7C00BDE808400021802000F028BC0121202085
:100B8C0000F024FCBDE808400021202000F01EBC31
:100B9C00000002400004024000080240000C024029
:100BAC000010024000180240001C024000140240D9
:100BBC0000222DE9F04313464FF0010E03260D6879
:100BCC0004E00133102B02F1020239D00EFA03F4C7
:100BDC0034EA0507F5D10F79D0F8009006FA02FC3B
:100BEC0007FA02F829EA0C09013F48EA0908012F23
:100BFC006FEA0C0CC0F8008014D8D0F808804F793C
:100C0C000CEA080C974047EA0C078760B0F804C060
:100C1C008F791FFA8CFC9F402CEA040CBCB244EA7E
:100C2C000C048480C768CC7906FA02FC944027EA4D
:100C3C000C0701333C43102BC46002F10202C5D1F6
:100C4C00BDE8F0834FF6FF720023C0E90023704724
:100C5C004FF4803382B00193019B0B430193019BB2
:100C6C00C361C161019BC361C3690193C3690193F2
:100C7C0002B07047038A194214BF0120002070474C
:100C8C00008A80B2704700BF838A194214BF0120CA
:100C9C0000207047808A80B2704700BF0183704784
:100CAC00418370470AB1018370474183704700BF8D
:100CBC0081827047838A9BB24B408382704700BF0E
:100CCC004FF00F0CCB0800EB830001F00701036A17
:100CDC0089000CFA01FC23EA0C030362036A8A40C4
:100CEC001A430262704700BF08B50D4B01219842B0
:100CFC000AD04FF4800000F081FBBDE808400021D1
:100D0C004FF4800000F07ABB4FF4001000F076FB3B
:100D1C00BDE8084000214FF4001000F06FBB00BF8D
:100D2C0000540040F0B504460D4685B06846A688D0
:100D3C0000F0AEFA2F4A029926F03F06A2FB0132D0
:100D4C003604360C46EA9246A68023882A4F23F0B6
:100D5C0001031B041B0C23802B68900CBB4223D873
:100D6C005B00B1FBF3F302469BB2042B38BF0423A8
:100D7C0001322284A3832388A9889BB243F0010308
:100D8C00238023886A8923F4816323F00203288952
:100D9C0011431B04AA891B0C02430B439BB292B256
:100DAC002380228105B0F0BD4BF6FF72EE8896428F
:100DBC001AD003EB830303EB8303B1FBF3F189B28A
:100DCC0041F48043C3F30B020AB943F001034FF41F
:100DDC00967101FB00F0094A43F40043A2FB00208A
:100DEC00800901302084C5E703EB4303B1FBF3F327
:100DFC009BB2E7E783DE1B43A0860100D34D621054
:100E0C0010B4002241F288344FF4804303498260CD
:100E1C00C0E90041838110BC704700BF0000FFBFD8
:100E2C00038821B19BB243F001030380704723F088
:100E3C0001031B041B0C0380704700BF038821B106
:100E4C009BB243F480730380704723F480731B04BC
:100E5C001B0C0380704700BF038821B19BB243F485
:100E6C0000730380704723F400731B041B0C038076
:100E7C00704700BF038821B19BB243F480630380A9
:100E8C00704723F480631B041B0C0380704700BF66
:100E9C00838901F0FE0123F0FE031B041B0C0B43A2
:100EAC0083817047838921B19BB243F00103838115
:100EBC00704723F001031B041B0C8381704700BF98
:100ECC00038821B19BB243F040030380704723F0A9
:100EDC0040031B041B0C0380704700BF038831B117
:100EEC006FEA43436FEA53439BB203807047C3F3EB
:100EFC000E030380704700BFB1F5005F038805D077
:100F0C0023F400531B041B0C038070479BB243F467
:100F1C0000530380704700BF038821B19BB243F09C
:100F2C0010030380704723F010031B041B0C038079
:100F3C00704700BF038821B99BB243F08003038044
:100F4C00704723F080031B041B0C0380704700BF09
:100F5C00B1F5804F838B05D023F480431B041B0C0D
:100F6C00838370479BB243F480438383704700BFF5
:100F7C001AB141F001010182704701F0FE010182BA
:100F8C00704700BF01827047008AC0B2704700BF33
:100F9C00B1F5006F038805D023F400631B041B0C10
:100FAC00038070479BB243F400630380704700BF1B
:100FBC00038821B19BB243F480530380704723F420
:100FCC0080531B041B0C0380704700BFB1F5006FEE
:100FDC00038805D023F400631B041B0C03807047AB
:100FEC009BB243F400630380704700BF038821B1B8
:100FFC009BB243F020030380704723F020031B04B3
:10100C001B0C0380704700BF008BC0F30720704798
:10101C00838821B19BB243F400638380704723F42F
:10102C0000631B041B0C8380704700BF838821B1B5
:10103C009BB243F480538380704723F480531B048A
:10104C001B0C8380704700BF002382B0019301907A
:10105C00019B19440191019B188880B202B0704722
:10106C0083889BB212B10B438380704723EA010340
:10107C0083807047838A028B9BB243EA02430B4006
:10108C0023F07F43581AB0FA80F04009704700BF34
:10109C00838A028B98B240EA024020F07F4070476E
:1010AC00002382B0009301930B0F01900093009BDF
:1010BC0021F07F4153B1019B14330193019B1B68B9
:1010CC000B4214BF0120002002B07047019B090C99
:1010DC0018330193F2E700BFC94389B2818270478C
:1010EC008388808A9BB280B2084006D003EA114301
:1010FC0013F4E06F14BF012000207047C94389B27C
:10110C008182704700200C4B0C4A196841F48071A5
:10111C00196099680A409A601A6822F0885222F085
:10112C0001121A601A6822F480221A609A6822F45A
:10113C007D029A60D8607047003802400CC0FF886E
:10114C000022024B9A709870704700BF0038024022
:10115C00002382B00A4A0193136813F4003F019BE9
:10116C0003F101030193019B05D0054B1868C0F3F3
:10117C00404002B07047B3F5A04FEDD1F5E700BF8A
:10118C0000380240014BD871704700BF0038024054
:10119C00034A536823F4604303435360704700BF12
:1011AC0000380240014B1862704700BF00004742F4
:1011BC00034A536823F4F85343EA002353607047FF
:1011CC0000380240014B1860704700BF00004742D6
:1011DC000022034B83F8352083F83500704700BF9D
:1011EC0000380240014BC3F88006704700004742AC
:1011FC00024B024311439972704700BF0038024002
:10120C00014B1866704700BF00004742014B18673E
:10121C00704700BF00004742014BC3F8AC06704753
:10122C0000004742014B0843D87270470038024017
:10123C00034A936823F0030303439360704700BF92
:10124C0000380240024B986800F00C00704700BF59
:10125C0000380240034A936823F0F0030343936081
:10126C00704700BF00380240034A936823F4E063E0
:10127C0003439360704700BF00380240034A9368F1
:10128C0023F4605343EAC003936070470038024074
:10129C00264B10B49B6803F00C030C2B08D8DFE82A
:1012AC0003F0070707073F070707420707072A004E
:1012BC004FF400431D4A1E495268C2F342320132B8
:1012CC0093401A4C0360A268C2F303120A44127BC7
:1012DC00D3404360A268C2F302220A44127B23FA71
:1012EC0002F28260A26810BCC2F3C22211440A7BD3
:1012FC00D340C36070470D4C0D49A268A368C2F37C
:10130C0083428A5CA468D2B2E40354BF094C0A4CF1
:10131C00C3F3815304FB02F20133B2FBF3F3D0E7C6
:10132C00044B0349CDE7044B0149CAE7003802409E
:10133C00902000080024F40000127A0000F44032DF
:10134C00B2F5403F07D1084900F0C0400B6823F0CC
:10135C00C04318430860044B596B21F44031596366
:10136C00596B0A435A63704700380240014BC3F86B
:10137C00D806704700004742014BC3F8DC067047A3
:10138C0000004742044AD36911B10343D36170474B
:10139C0023EA0003D361704700380240044A136A01
:1013AC0011B103431362704723EA000313627047C1
:1013BC0000380240044A536A11B103435362704728
:1013CC0023EA00035362704700380240044A136951
:1013DC0011B103431361704723EA00031361704793
:1013EC0000380240044A536911B1034353617047FA
:1013FC0023EA00035361704700380240044A9369A2
:10140C0011B103439361704723EA00039361704762
:10141C0000380240044A936A11B103439362704747
:10142C0023EA00039362704700380240044AD36AEF
:10143C0011B10343D362704723EA0003D3627047B0
:10144C0000380240044A136B11B103431363704715
:10145C0023EA00031363704700380240044A537BAD
:10146C0011B103435373704723EA0003537370475E
:10147C00003802404309012B054B00F01F000CBF44
:10148C001B685B6B23FA00F000F00100704700BF93
:10149C0000380240024A536B43F080735363704729
:1014AC0000380240034BDB68184214BF01200020B7
:1014BC00704700BF00380240014B9873704700BF63
:1014CC000038024008B5174B984206D0164B98428C
:1014DC000FD0164B984218D008BD01214FF4805004
:1014EC00FFF780FFBDE8084000214FF48050FFF764
:1014FC0079BF01214FF48040FFF780FFBDE8084021
:10150C0000214FF48040FFF779BF01214FF40040D8
:10151C00FFF774FFBDE8084000214FF40040FFF7CF
:10152C006DBF00BF0030014000380040003C00405F
:10153C00B1F802C00B888A8843EA0C03B1F806C0E4
:10154C0013430A8943EA0C0300B5B1F80AE0B1F879
:10155C000CC0134343EA0E03028843EA0C03B1F8B0
:10156C000EC002F4415243EA0C0313439BB20380B6
:10157C00838B0A8A23F400631B041B0C8383028273
:10158C005DF804FBF0B50224838B8A6823F47B633B
:10159C0023F00F031B041B0C83830484848B022A0B
:1015AC0006460D4685B0A4B23DD08B886846002B0C
:1015BC0014BF02270127FFF76BFEEA88009BB2F5E8
:1015CC00007F26D07F01B3FBF7F3A96803EB8303FD
:1015DC005B00B3FBF1F305339BB21449A1FB03137E
:1015EC001909881EFD28C3F3C0038CBF022341EAEE
:1015FC0003231A432B8832846A88A9881343234314
:10160C00AA890B4313439BB243F40063B38305B025
:10161C00F0BD1B0AA96803EB83035B00B3FBF1F37A
:10162C0005339BB2D9E71346CA88E2E7CDCCCCCCC4
:10163C0000230722036043608360C360028270470B
:10164C0000230222C0E9003382608381704700BF0F
:10165C00038821B19BB243F040030380704723F011
:10166C0040031B041B0C0380704700BF838B21B10C
:10167C009BB243F480638383704723F480631B0421
:10168C001B0C8383704700BF038823F400631B0487
:10169C001B0C038003889BB20B430380704700BF75
:1016AC00B1F5804F038805D023F480431B041B0C39
:1016BC00038070479BB243F480430380704700BFA4
:1016CC004FF6FF639942038804D09BB243F48073B6
:1016DC000380704723F480731B041B0C038070473A
:1016EC00838821B19BB243F004038380704723F0BD
:1016FC0004031B041B0C8380704700BF808980B2DD
:10170C00704700BF81817047038821B19BB243F4BD
:10171C0000530380704723F400531B041B0C0380FD
:10172C00704700BF03889BB243F48053038070471B
:10173C00012914BF008B808A80B27047008A80B266
:10174C00704700BF83889BB212B10B4383807047F4
:10175C0023EA010383807047012309098B409BB264
:10176C0022B1828892B2134383807047828892B2EE
:10177C0022EA0303838070470389194214BF0120B6
:10178C0000207047C94389B20181704701228388C8
:10179C0000891FFA83FC01F00F0380B202FA03F3F5
:1017AC00184006D009098A401CEA020F14BF012018
:1017BC0000207047012301F00F018B40DB439BB2EB
:1017CC0003817047012108B50846FFF70BFEBDE801
:1017DC00084000210120FFF705BE00BF0022044B8A
:1017EC005A609A60DA601A615A619A61DA617047DC
:1017FC00007C0040014B1860704700BF00000140A6
:10180C00024B186800F44070704700BF00000140A4
:10181C00054A536818B143F001035360704723F035
:10182C0001035360704700BF000001404FF00F0CE4
:10183C0001F0FC0303F1804303F5803301F0030155
:10184C009A6889000CFA01FC22EA0C029A609A68E8
:10185C008840104398607047034A536823F4403320
:10186C0003435360704700BF007C00400F4B4203A2
:10187C005B6843EA000344BF23F00F030B430203EE
:10188C0044BF23F0F00343EA0113C20244BF23F424
:10189C00706343EA0123820248BF23F47043034A76
:1018AC0048BF43EA01335360704700BF007C0040DF
:1018BC00064AD2F8003C19B10343C2F8003C704709
:1018CC0023EA0003C2F8003C704700BF00700040E0
:1018DC00064AD2F8003C21B123EA0003C2F8003CCE
:1018EC0070470343C2F8003C704700BF00700040D3
:1018FC00C30F20F0004029B10A4A73B19368034327
:10190C0093607047C043074A1BB1936803409360D0
:10191C007047D3680340D3607047D3680343D360E8
:10192C00704700BF007C0040054A936818B143F033
:10193C0000439360704723F000439360704700BFEF
:10194C00007C00400138052856D8DFE800F00C1464
:10195C00251D2D03002A2ED0C9432D4A936903EA75
:10196C00014393617047002A30D0294A136923EA56
:10197C00010313617047002A33D0C943244A136909
:10198C0003EA0143136170472AB3C943204A5369E0
:10199C0003EA014353617047002A28D01C4A53695B
:1019AC0023EA0103536170475AB1194A936923EA38
:1019BC00010393617047164A936943EA01439361AB
:1019CC007047134A93690B4393617047104A13692C
:1019DC000B43136170470E4A536943EA0143536149
:1019EC0070470B4A136943EA014313617047084A75
:1019FC0053690B43536170472AB1054AD36923EAF3
:101A0C000103D3617047024AD3690B43D36170471A
:101A1C00007C004008B5264B984218D0254B9842C4
:101A2C0021D0254B98422AD0244B984203D0244BEA
:101A3C00984230D008BD01214FF40020FFF7DEFCA6
:101A4C00BDE8084000214FF40020FFF7D7BC01216E
:101A5C004FF48040FFF7C6FCBDE8084000214FF46E
:101A6C008040FFF7BFBC01214FF40030FFF7C6FCEC
:101A7C00BDE8084000214FF40030FFF7BFBC012146
:101A8C004FF48020FFF7BAFCBDE8084000214FF46A
:101A9C008020FFF7B3BC01214FF48010FFF7AEFCA0
:101AAC00BDE8084000214FF48010FFF7A7BC00BF31
:101ABC00003801400044004000480040004C004009
:101ACC000050004030B504460D46238ACA889BB2AC
:101ADC0023F4405313432382A2898B88098922F46F
:101AEC00B0520B43698922F00C020B431204120C06
:101AFC009BB21343A381A38AAA899BB223F440739C
:101B0C00134385B06846A382FFF7C2FBDDE90231BF
:101B1C0018482A68844208BF0B46A18903EB83034B
:101B2C0008044CBF5200920003EB8303B3FBF2F3A7
:101B3C0064251148A0FB0321490905FB11330A0157
:101B4C00A18909040AD41B013233A0FB0303C3F39C
:101B5C00431313439BB2238105B030BDDB003233FA
:101B6C00A0FB0303C3F3421313439BB2238105B0C1
:101B7C0030BD00BF003801401F85EB5100234FF4EE
:101B8C0016514FF44022C0E90013826083817047E4
:101B9C000B8800B5B1F802E0B1F804C0028AC9881C
:101BAC0043EA0E0343EA0C0392B20B4322F4706235
:101BBC009BB2134303825DF804FB00BF0023036058
:101BCC0043607047838921B19BB243F400538381F6
:101BDC00704723F400531B041B0C8381704700BF18
:101BEC00038B03F47F430383038B9BB21943018361
:101BFC00704700BF838931B16FEA43436FEA5343A7
:101C0C009BB283817047C3F30E038381704700BF7F
:101C1C00838A21B19BB243F400638382704723F41F
:101C2C0000631B041B0C8382704700BFC1F30801C7
:101C3C00818070478088C0F308007047038A23F0C6
:101C4C000F031B041B0C0382038A9BB219430182F2
:101C5C00704700BF838921B19BB243F0020383819B
:101C6C00704723F002031B041B0C8381704700BFD9
:101C7C00838923F400631B041B0C838183899BB22F
:101C8C000B438381704700BF038A23F020031B049E
:101C9C001B0C0382038A9BB20B430382704700BF69
:101CAC00038A21B19BB243F480430382704723F42F
:101CBC0080431B041B0C0382704700BF83899BB2BB
:101CCC0043F0010383817047838A21B19BB243F0B7
:101CDC0008038382704723F008031B041B0C8382C8
:101CEC00704700BF038BDBB20383038B9BB243EAC9
:101CFC0001230383704700BF838A21B19BB243F059
:101D0C0020038382704723F020031B041B0C838267
:101D1C00704700BF838A21B19BB243F010038382CA
:101D2C00704723F010031B041B0C8382704700BF09
:101D3C00838A23F004031B041B0C8382838A9BB2CB
:101D4C000B438382704700BF838A21B19BB243F05F
:101D5C0002038382704723F002031B041B0C838253
:101D6C00704700BF838A9BB212B10B4383827047CA
:101D7C0023EA010383827047012301F01F0CC1F396
:101D8C004211012903FA0CF30DD002290CBF1030BB
:101D9C0014301AB10268134303607047026822EAD8
:101DAC000303036070470C30F3E700BF038819424C
:101DBC0014BF012000207047C94389B201807047CD
:101DCC000123C1F3421201F01F0C012A03FA0CF398
:101DDC0012D0022A0CBF028A828A92B21340028865
:101DEC0092B23BB10123090A8B401A4214BF012065
:101DFC000020704718467047828992B21340EEE774
:101E0C000123090A8B40DB439BB20380704700BF60
:101E1C0070B500260C4D0D4C641BA410A64209D1C4
:101E2C0000F03EF900260A4D0A4C641BA410A64291
:101E3C0005D170BD55F8043B98470136EEE755F8CF
:101E4C00043B98470136F2E7000000000000000058
:101E5C000000000000000000002103E00B4B5B5869
:101E6C00435004310A480B4B42189A42F6D30A4AA3
:101E7C0002E0002342F8043B084B9A42F9D300F0ED
:101E8C0011F8FFF7C5FF00F09FF87047C420000859
:101E9C0000000020400000204000002070000020C6
:101EAC00FEE700003E4B82B01A6842F480721A6062
:101EBC0099683C4A0A409A601A6822F0885222F0CB
:101ECC0001121A601A6822F480221A609A6822F4AD
:101EDC007D029A600022DA60009201921A6842F444
:101EEC0080321A601A6802F400320192009A0132B0
:101EFC000092019A1AB9009AB2F5A04FF2D11B6860
:101F0C0013F4003318BF01230193019B012B41D122
:101F1C004FF40061244B1A68A3F5806342F004026D
:101F2C00C3F80024D3F8002442F00202C3F80024C2
:101F3C00D3F8002442F00102C3F800245A6A42F09C
:101F4C0080525A62194A11605168C906FCD49A68C9
:101F5C009A609A689A609A689A609A6822F47D02EC
:101F6C009A609A6842F411029A601A6842F0807280
:101F7C001A600B4B1A689201FCD59A6822F0030286
:101F8C009A609A6842F003029A609A6802F00C0216
:101F9C000C2AFAD14FF00062054B9A6002B07047E0
:101FAC00003802400CC0FF88003C0240007000402A
:101FBC0000ED00E07047FEE7FEE7FEE7FEE7704746
:101FCC007047704700F00CB8022008B5FEF7B0F867
:101FDC000320FEF7ADF80220FEF7CAF8FEE700007A
:101FEC00034B1A6812B11A68013A1A60704700BFA5
:101FFC006C00002008000000080000000800000031
:10200C000800000001000200100020000100000088
:10201C001000000010000000100000001000000074
:10202C001000000001000008001000020004000174
:10203C00000B0C090A08000000040404040400004E
:10204C0001000008001000020004000106282817F7
:10205C002817000008000000040000000800000021
:10206C00040000000000020000000400070700004C
:10207C00050A000007070000060B00002000000402
:10208C0040000008030406080C1018203000000063
:10209C000000000001020304010203040607080902
:1020AC00F8B500BFF8BC08BC9E467047F8B500BF39
:0820BC00F8BC08BC9E46704709
:1020C400000C0240000C0240000C0240000C0240D4
:1020D40000000240001002400010024000100240C4
:1020E4000010024000100240000C024000080240B0
:1020F400000C024000080240004400400048004038
:0400000508001E656C
:00000001FF
